{
  "contractName": "Lightweight",
  "abi": [
    {
      "constant": true,
      "inputs": [
        {
          "name": "",
          "type": "uint256"
        }
      ],
      "name": "itemToOwner",
      "outputs": [
        {
          "name": "",
          "type": "address"
        }
      ],
      "payable": false,
      "stateMutability": "view",
      "type": "function"
    },
    {
      "constant": true,
      "inputs": [
        {
          "name": "",
          "type": "uint256"
        }
      ],
      "name": "itemsOfferedForSale",
      "outputs": [
        {
          "name": "isForSale",
          "type": "bool"
        },
        {
          "name": "itemId",
          "type": "uint256"
        },
        {
          "name": "seller",
          "type": "address"
        },
        {
          "name": "value",
          "type": "uint256"
        },
        {
          "name": "onlySellTo",
          "type": "address"
        }
      ],
      "payable": false,
      "stateMutability": "view",
      "type": "function"
    },
    {
      "constant": true,
      "inputs": [
        {
          "name": "",
          "type": "address"
        }
      ],
      "name": "ownerItemCount",
      "outputs": [
        {
          "name": "",
          "type": "uint256"
        }
      ],
      "payable": false,
      "stateMutability": "view",
      "type": "function"
    },
    {
      "constant": true,
      "inputs": [
        {
          "name": "",
          "type": "uint256"
        }
      ],
      "name": "items",
      "outputs": [
        {
          "name": "name",
          "type": "string"
        },
        {
          "name": "hashCode",
          "type": "string"
        }
      ],
      "payable": false,
      "stateMutability": "view",
      "type": "function"
    },
    {
      "constant": true,
      "inputs": [],
      "name": "highestItemId",
      "outputs": [
        {
          "name": "",
          "type": "uint256"
        }
      ],
      "payable": false,
      "stateMutability": "view",
      "type": "function"
    },
    {
      "constant": true,
      "inputs": [
        {
          "name": "",
          "type": "address"
        }
      ],
      "name": "pendingWithdrawals",
      "outputs": [
        {
          "name": "",
          "type": "uint256"
        }
      ],
      "payable": false,
      "stateMutability": "view",
      "type": "function"
    },
    {
      "anonymous": false,
      "inputs": [
        {
          "indexed": false,
          "name": "itemId",
          "type": "uint256"
        },
        {
          "indexed": false,
          "name": "name",
          "type": "string"
        },
        {
          "indexed": false,
          "name": "hashCode",
          "type": "string"
        },
        {
          "indexed": false,
          "name": "owner",
          "type": "address"
        }
      ],
      "name": "NewItem",
      "type": "event"
    },
    {
      "anonymous": false,
      "inputs": [
        {
          "indexed": false,
          "name": "itemId",
          "type": "uint256"
        },
        {
          "indexed": false,
          "name": "salePriceInWei",
          "type": "uint256"
        },
        {
          "indexed": false,
          "name": "owner",
          "type": "address"
        },
        {
          "indexed": false,
          "name": "anyone",
          "type": "bool"
        }
      ],
      "name": "OfferPosted",
      "type": "event"
    },
    {
      "anonymous": false,
      "inputs": [
        {
          "indexed": false,
          "name": "itemId",
          "type": "uint256"
        },
        {
          "indexed": false,
          "name": "owner",
          "type": "address"
        }
      ],
      "name": "OfferTakenDown",
      "type": "event"
    },
    {
      "anonymous": false,
      "inputs": [
        {
          "indexed": false,
          "name": "itemId",
          "type": "uint256"
        },
        {
          "indexed": false,
          "name": "buyer",
          "type": "address"
        },
        {
          "indexed": false,
          "name": "seller",
          "type": "address"
        }
      ],
      "name": "ItemBought",
      "type": "event"
    },
    {
      "anonymous": false,
      "inputs": [
        {
          "indexed": true,
          "name": "_from",
          "type": "address"
        },
        {
          "indexed": true,
          "name": "_to",
          "type": "address"
        },
        {
          "indexed": false,
          "name": "_tokenId",
          "type": "uint256"
        }
      ],
      "name": "Transfer",
      "type": "event"
    },
    {
      "anonymous": false,
      "inputs": [
        {
          "indexed": true,
          "name": "_owner",
          "type": "address"
        },
        {
          "indexed": true,
          "name": "_approved",
          "type": "address"
        },
        {
          "indexed": false,
          "name": "_tokenId",
          "type": "uint256"
        }
      ],
      "name": "Approval",
      "type": "event"
    },
    {
      "constant": true,
      "inputs": [
        {
          "name": "_id",
          "type": "uint256"
        }
      ],
      "name": "getOwner",
      "outputs": [
        {
          "name": "",
          "type": "address"
        }
      ],
      "payable": false,
      "stateMutability": "view",
      "type": "function"
    },
    {
      "constant": true,
      "inputs": [
        {
          "name": "_id",
          "type": "uint256"
        }
      ],
      "name": "getName",
      "outputs": [
        {
          "name": "",
          "type": "string"
        }
      ],
      "payable": false,
      "stateMutability": "view",
      "type": "function"
    },
    {
      "constant": true,
      "inputs": [
        {
          "name": "_id",
          "type": "uint256"
        }
      ],
      "name": "getHashCode",
      "outputs": [
        {
          "name": "",
          "type": "string"
        }
      ],
      "payable": false,
      "stateMutability": "view",
      "type": "function"
    },
    {
      "constant": true,
      "inputs": [
        {
          "name": "_owner",
          "type": "address"
        }
      ],
      "name": "getCount",
      "outputs": [
        {
          "name": "",
          "type": "uint256"
        }
      ],
      "payable": false,
      "stateMutability": "view",
      "type": "function"
    },
    {
      "constant": true,
      "inputs": [
        {
          "name": "_owner",
          "type": "address"
        }
      ],
      "name": "getItemsByOwner",
      "outputs": [
        {
          "name": "",
          "type": "uint256[]"
        }
      ],
      "payable": false,
      "stateMutability": "view",
      "type": "function"
    },
    {
      "constant": false,
      "inputs": [
        {
          "name": "_name",
          "type": "string"
        },
        {
          "name": "_hashCode",
          "type": "string"
        },
        {
          "name": "_owner",
          "type": "address"
        }
      ],
      "name": "createItem",
      "outputs": [],
      "payable": false,
      "stateMutability": "nonpayable",
      "type": "function"
    },
    {
      "constant": false,
      "inputs": [
        {
          "name": "_target",
          "type": "address"
        }
      ],
      "name": "addCount",
      "outputs": [],
      "payable": false,
      "stateMutability": "nonpayable",
      "type": "function"
    },
    {
      "constant": false,
      "inputs": [
        {
          "name": "_target",
          "type": "address"
        }
      ],
      "name": "subCount",
      "outputs": [],
      "payable": false,
      "stateMutability": "nonpayable",
      "type": "function"
    },
    {
      "constant": false,
      "inputs": [
        {
          "name": "_id",
          "type": "uint256"
        },
        {
          "name": "_newOwner",
          "type": "address"
        }
      ],
      "name": "changeOwnerTo",
      "outputs": [],
      "payable": false,
      "stateMutability": "nonpayable",
      "type": "function"
    },
    {
      "constant": false,
      "inputs": [
        {
          "name": "_itemId",
          "type": "uint256"
        },
        {
          "name": "_salePriceInWei",
          "type": "uint256"
        }
      ],
      "name": "offerItem",
      "outputs": [],
      "payable": false,
      "stateMutability": "nonpayable",
      "type": "function"
    },
    {
      "constant": false,
      "inputs": [
        {
          "name": "_itemId",
          "type": "uint256"
        }
      ],
      "name": "takeDown",
      "outputs": [],
      "payable": false,
      "stateMutability": "nonpayable",
      "type": "function"
    },
    {
      "constant": false,
      "inputs": [
        {
          "name": "_itemId",
          "type": "uint256"
        },
        {
          "name": "_salePriceInWei",
          "type": "uint256"
        },
        {
          "name": "_to",
          "type": "address"
        }
      ],
      "name": "offerItemToAddress",
      "outputs": [],
      "payable": false,
      "stateMutability": "nonpayable",
      "type": "function"
    },
    {
      "constant": true,
      "inputs": [
        {
          "name": "_itemId",
          "type": "uint256"
        }
      ],
      "name": "itemToPrice",
      "outputs": [
        {
          "name": "",
          "type": "uint256"
        }
      ],
      "payable": false,
      "stateMutability": "view",
      "type": "function"
    },
    {
      "constant": false,
      "inputs": [
        {
          "name": "_itemId",
          "type": "uint256"
        }
      ],
      "name": "buyItem",
      "outputs": [],
      "payable": true,
      "stateMutability": "payable",
      "type": "function"
    },
    {
      "constant": false,
      "inputs": [],
      "name": "withdraw",
      "outputs": [],
      "payable": false,
      "stateMutability": "nonpayable",
      "type": "function"
    },
    {
      "constant": true,
      "inputs": [
        {
          "name": "_owner",
          "type": "address"
        }
      ],
      "name": "balanceOf",
      "outputs": [
        {
          "name": "_balance",
          "type": "uint256"
        }
      ],
      "payable": false,
      "stateMutability": "view",
      "type": "function"
    },
    {
      "constant": true,
      "inputs": [
        {
          "name": "_tokenId",
          "type": "uint256"
        }
      ],
      "name": "ownerOf",
      "outputs": [
        {
          "name": "_owner",
          "type": "address"
        }
      ],
      "payable": false,
      "stateMutability": "view",
      "type": "function"
    },
    {
      "constant": false,
      "inputs": [
        {
          "name": "_to",
          "type": "address"
        },
        {
          "name": "_tokenId",
          "type": "uint256"
        }
      ],
      "name": "transfer",
      "outputs": [],
      "payable": false,
      "stateMutability": "nonpayable",
      "type": "function"
    },
    {
      "constant": false,
      "inputs": [
        {
          "name": "_to",
          "type": "address"
        },
        {
          "name": "_tokenId",
          "type": "uint256"
        }
      ],
      "name": "approve",
      "outputs": [],
      "payable": false,
      "stateMutability": "nonpayable",
      "type": "function"
    },
    {
      "constant": false,
      "inputs": [
        {
          "name": "_tokenId",
          "type": "uint256"
        }
      ],
      "name": "takeOwnership",
      "outputs": [],
      "payable": false,
      "stateMutability": "nonpayable",
      "type": "function"
    }
  ],
  "bytecode": "0x6080604052600060065534801561001557600080fd5b506122d3806100256000396000f300608060405260043610610154576000357c0100000000000000000000000000000000000000000000000000000000900463ffffffff1680630684f29814610159578063095ea7b3146101a65780630efd5d75146101f35780631a4d96cd146102c25780632bd705021461032f5780632c67a8e5146103705780633ccfd60b146104085780634b4ddfa61461041f5780634c798473146104d85780634f0cd27b1461052f57806355cd2fd3146105865780636352211e146105dd5780636b8ff5741461064a57806370a08231146106f0578063745f53ae1461074757806385cd0d97146107ed57806386e63450146108305780639b95bc1a1461085d578063a9059cbb146108a0578063b2e6ceeb146108ed578063bfb231d21461091a578063c41a360a14610a2c578063d1594c6214610a99578063e7fb74c714610ac4578063f3f4370314610ae4578063f76b08ea14610b3b575b600080fd5b34801561016557600080fd5b506101a460048036038101908080359060200190929190803573ffffffffffffffffffffffffffffffffffffffff169060200190929190505050610b72565b005b3480156101b257600080fd5b506101f1600480360381019080803573ffffffffffffffffffffffffffffffffffffffff16906020019092919080359060200190929190505050610bc8565b005b3480156101ff57600080fd5b506102c0600480360381019080803590602001908201803590602001908080601f0160208091040260200160405190810160405280939291908181526020018383808284378201915050505050509192919290803590602001908201803590602001908080601f0160208091040260200160405190810160405280939291908181526020018383808284378201915050505050509192919290803573ffffffffffffffffffffffffffffffffffffffff169060200190929190505050610c83565b005b3480156102ce57600080fd5b506102ed60048036038101908080359060200190929190505050610ef4565b604051808273ffffffffffffffffffffffffffffffffffffffff1673ffffffffffffffffffffffffffffffffffffffff16815260200191505060405180910390f35b34801561033b57600080fd5b5061035a60048036038101908080359060200190929190505050610f27565b6040518082815260200191505060405180910390f35b34801561037c57600080fd5b506103b1600480360381019080803573ffffffffffffffffffffffffffffffffffffffff169060200190929190505050610f47565b6040518080602001828103825283818151815260200191508051906020019060200280838360005b838110156103f45780820151818401526020810190506103d9565b505050509050019250505060405180910390f35b34801561041457600080fd5b5061041d611079565b005b34801561042b57600080fd5b5061044a6004803603810190808035906020019092919050505061114c565b60405180861515151581526020018581526020018473ffffffffffffffffffffffffffffffffffffffff1673ffffffffffffffffffffffffffffffffffffffff1681526020018381526020018273ffffffffffffffffffffffffffffffffffffffff1673ffffffffffffffffffffffffffffffffffffffff1681526020019550505050505060405180910390f35b3480156104e457600080fd5b50610519600480360381019080803573ffffffffffffffffffffffffffffffffffffffff1690602001909291905050506111cf565b6040518082815260200191505060405180910390f35b34801561053b57600080fd5b50610570600480360381019080803573ffffffffffffffffffffffffffffffffffffffff1690602001909291905050506111e7565b6040518082815260200191505060405180910390f35b34801561059257600080fd5b506105db6004803603810190808035906020019092919080359060200190929190803573ffffffffffffffffffffffffffffffffffffffff169060200190929190505050611230565b005b3480156105e957600080fd5b5061060860048036038101908080359060200190929190505050611404565b604051808273ffffffffffffffffffffffffffffffffffffffff1673ffffffffffffffffffffffffffffffffffffffff16815260200191505060405180910390f35b34801561065657600080fd5b5061067560048036038101908080359060200190929190505050611416565b6040518080602001828103825283818151815260200191508051906020019080838360005b838110156106b557808201518184015260208101905061069a565b50505050905090810190601f1680156106e25780820380516001836020036101000a031916815260200191505b509250505060405180910390f35b3480156106fc57600080fd5b50610731600480360381019080803573ffffffffffffffffffffffffffffffffffffffff1690602001909291905050506114d8565b6040518082815260200191505060405180910390f35b34801561075357600080fd5b50610772600480360381019080803590602001909291905050506114ea565b6040518080602001828103825283818151815260200191508051906020019080838360005b838110156107b2578082015181840152602081019050610797565b50505050905090810190601f1680156107df5780820380516001836020036101000a031916815260200191505b509250505060405180910390f35b3480156107f957600080fd5b5061082e600480360381019080803573ffffffffffffffffffffffffffffffffffffffff1690602001909291905050506115ac565b005b34801561083c57600080fd5b5061085b60048036038101908080359060200190929190505050611645565b005b34801561086957600080fd5b5061089e600480360381019080803573ffffffffffffffffffffffffffffffffffffffff169060200190929190505050611819565b005b3480156108ac57600080fd5b506108eb600480360381019080803573ffffffffffffffffffffffffffffffffffffffff169060200190929190803590602001909291905050506118b2565b005b3480156108f957600080fd5b50610918600480360381019080803590602001909291905050506118c1565b005b34801561092657600080fd5b506109456004803603810190808035906020019092919050505061194a565b604051808060200180602001838103835285818151815260200191508051906020019080838360005b8381101561098957808201518184015260208101905061096e565b50505050905090810190601f1680156109b65780820380516001836020036101000a031916815260200191505b50838103825284818151815260200191508051906020019080838360005b838110156109ef5780820151818401526020810190506109d4565b50505050905090810190601f168015610a1c5780820380516001836020036101000a031916815260200191505b5094505050505060405180910390f35b348015610a3857600080fd5b50610a5760048036038101908080359060200190929190505050611aad565b604051808273ffffffffffffffffffffffffffffffffffffffff1673ffffffffffffffffffffffffffffffffffffffff16815260200191505060405180910390f35b348015610aa557600080fd5b50610aae611aea565b6040518082815260200191505060405180910390f35b610ae260048036038101908080359060200190929190505050611af0565b005b348015610af057600080fd5b50610b25600480360381019080803573ffffffffffffffffffffffffffffffffffffffff169060200190929190505050611efb565b6040518082815260200191505060405180910390f35b348015610b4757600080fd5b50610b706004803603810190808035906020019092919080359060200190929190505050611f13565b005b806001600084815260200190815260200160002060006101000a81548173ffffffffffffffffffffffffffffffffffffffff021916908373ffffffffffffffffffffffffffffffffffffffff1602179055505050565b816003600083815260200190815260200160002060006101000a81548173ffffffffffffffffffffffffffffffffffffffff021916908373ffffffffffffffffffffffffffffffffffffffff1602179055508173ffffffffffffffffffffffffffffffffffffffff163373ffffffffffffffffffffffffffffffffffffffff167f8c5be1e5ebec7d5bd14f71427d1e84f3dd0314c0f7b2291e5b200ac8c7c3b925836040518082815260200191505060405180910390a35050565b600060016000604080519081016040528087815260200186815250908060018154018082558091505090600182039060005260206000209060020201600090919290919091506000820151816000019080519060200190610ce59291906121a4565b506020820151816001019080519060200190610d029291906121a4565b5050500390507ff6cbfcc54f293e48b9567e8a59f8f95e8a0c7079753b5e21e5ca284bb727c037818585336040518085815260200180602001806020018473ffffffffffffffffffffffffffffffffffffffff1673ffffffffffffffffffffffffffffffffffffffff168152602001838103835286818151815260200191508051906020019080838360005b83811015610da9578082015181840152602081019050610d8e565b50505050905090810190601f168015610dd65780820380516001836020036101000a031916815260200191505b50838103825285818151815260200191508051906020019080838360005b83811015610e0f578082015181840152602081019050610df4565b50505050905090810190601f168015610e3c5780820380516001836020036101000a031916815260200191505b50965050505050505060405180910390a1816001600083815260200190815260200160002060006101000a81548173ffffffffffffffffffffffffffffffffffffffff021916908373ffffffffffffffffffffffffffffffffffffffff160217905550600260008373ffffffffffffffffffffffffffffffffffffffff1673ffffffffffffffffffffffffffffffffffffffff1681526020019081526020016000206000815480929190600101919050555050505050565b60016020528060005260406000206000915054906101000a900473ffffffffffffffffffffffffffffffffffffffff1681565b600060046000838152602001908152602001600020600301549050919050565b606080600080600260008673ffffffffffffffffffffffffffffffffffffffff1673ffffffffffffffffffffffffffffffffffffffff16815260200190815260200160002054604051908082528060200260200182016040528015610fbb5781602001602082028038833980820191505090505b50925060009150600090505b60008054905081101561106e578473ffffffffffffffffffffffffffffffffffffffff166001600083815260200190815260200160002060009054906101000a900473ffffffffffffffffffffffffffffffffffffffff1673ffffffffffffffffffffffffffffffffffffffff1614156110615780838381518110151561104a57fe5b906020019060200201818152505081806001019250505b8080600101915050610fc7565b829350505050919050565b6000600560003373ffffffffffffffffffffffffffffffffffffffff1673ffffffffffffffffffffffffffffffffffffffff1681526020019081526020016000205490506000600560003373ffffffffffffffffffffffffffffffffffffffff1673ffffffffffffffffffffffffffffffffffffffff168152602001908152602001600020819055503373ffffffffffffffffffffffffffffffffffffffff166108fc829081150290604051600060405180830381858888f19350505050158015611148573d6000803e3d6000fd5b5050565b60046020528060005260406000206000915090508060000160009054906101000a900460ff16908060010154908060020160009054906101000a900473ffffffffffffffffffffffffffffffffffffffff16908060030154908060040160009054906101000a900473ffffffffffffffffffffffffffffffffffffffff16905085565b60026020528060005260406000206000915090505481565b6000600260008373ffffffffffffffffffffffffffffffffffffffff1673ffffffffffffffffffffffffffffffffffffffff168152602001908152602001600020549050919050565b600060a0604051908101604052806001151581526020018581526020013373ffffffffffffffffffffffffffffffffffffffff1681526020018481526020018373ffffffffffffffffffffffffffffffffffffffff168152506004600086815260200190815260200160002060008201518160000160006101000a81548160ff0219169083151502179055506020820151816001015560408201518160020160006101000a81548173ffffffffffffffffffffffffffffffffffffffff021916908373ffffffffffffffffffffffffffffffffffffffff1602179055506060820151816003015560808201518160040160006101000a81548173ffffffffffffffffffffffffffffffffffffffff021916908373ffffffffffffffffffffffffffffffffffffffff16021790555090505060065484111561137357836006819055505b61137c84611aad565b90507f4db9f9d46965c3a6e3bf71f644c011950471378d9292cb675751a0a6f8e4a4ec8484836000604051808581526020018481526020018373ffffffffffffffffffffffffffffffffffffffff1673ffffffffffffffffffffffffffffffffffffffff1681526020018215151515815260200194505050505060405180910390a150505050565b600061140f82611aad565b9050919050565b606060008281548110151561142757fe5b90600052602060002090600202016000018054600181600116156101000203166002900480601f0160208091040260200160405190810160405280929190818152602001828054600181600116156101000203166002900480156114cc5780601f106114a1576101008083540402835291602001916114cc565b820191906000526020600020905b8154815290600101906020018083116114af57829003601f168201915b50505050509050919050565b60006114e3826111e7565b9050919050565b60606000828154811015156114fb57fe5b90600052602060002090600202016001018054600181600116156101000203166002900480601f0160208091040260200160405190810160405280929190818152602001828054600181600116156101000203166002900480156115a05780601f10611575576101008083540402835291602001916115a0565b820191906000526020600020905b81548152906001019060200180831161158357829003601f168201915b50505050509050919050565b6115ff6001600260008473ffffffffffffffffffffffffffffffffffffffff1673ffffffffffffffffffffffffffffffffffffffff168152602001908152602001600020546120e790919063ffffffff16565b600260008373ffffffffffffffffffffffffffffffffffffffff1673ffffffffffffffffffffffffffffffffffffffff1681526020019081526020016000208190555050565b60006004600083815260200190815260200160002090508060000160009054906101000a900460ff16151561167957600080fd5b60a0604051908101604052806000151581526020018381526020013373ffffffffffffffffffffffffffffffffffffffff16815260200160008152602001600073ffffffffffffffffffffffffffffffffffffffff168152506004600084815260200190815260200160002060008201518160000160006101000a81548160ff0219169083151502179055506020820151816001015560408201518160020160006101000a81548173ffffffffffffffffffffffffffffffffffffffff021916908373ffffffffffffffffffffffffffffffffffffffff1602179055506060820151816003015560808201518160040160006101000a81548173ffffffffffffffffffffffffffffffffffffffff021916908373ffffffffffffffffffffffffffffffffffffffff1602179055509050507f891b51cb5bdb53cef52f461444fcbfed2566d8f797a9d34c9ced2a16876c6d788233604051808381526020018273ffffffffffffffffffffffffffffffffffffffff1673ffffffffffffffffffffffffffffffffffffffff1681526020019250505060405180910390a15050565b61186c6001600260008473ffffffffffffffffffffffffffffffffffffffff1673ffffffffffffffffffffffffffffffffffffffff1681526020019081526020016000205461210090919063ffffffff16565b600260008373ffffffffffffffffffffffffffffffffffffffff1673ffffffffffffffffffffffffffffffffffffffff1681526020019081526020016000208190555050565b6118bd33838361211e565b5050565b60003373ffffffffffffffffffffffffffffffffffffffff166003600084815260200190815260200160002060009054906101000a900473ffffffffffffffffffffffffffffffffffffffff1673ffffffffffffffffffffffffffffffffffffffff1614151561193057600080fd5b61193982611404565b905061194681338461211e565b5050565b60008181548110151561195957fe5b9060005260206000209060020201600091509050806000018054600181600116156101000203166002900480601f016020809104026020016040519081016040528092919081815260200182805460018160011615610100020316600290048015611a055780601f106119da57610100808354040283529160200191611a05565b820191906000526020600020905b8154815290600101906020018083116119e857829003601f168201915b505050505090806001018054600181600116156101000203166002900480601f016020809104026020016040519081016040528092919081815260200182805460018160011615610100020316600290048015611aa35780601f10611a7857610100808354040283529160200191611aa3565b820191906000526020600020905b815481529060010190602001808311611a8657829003601f168201915b5050505050905082565b60006001600083815260200190815260200160002060009054906101000a900473ffffffffffffffffffffffffffffffffffffffff169050919050565b60065481565b611af8612224565b60006004600084815260200190815260200160002060a060405190810160405290816000820160009054906101000a900460ff16151515158152602001600182015481526020016002820160009054906101000a900473ffffffffffffffffffffffffffffffffffffffff1673ffffffffffffffffffffffffffffffffffffffff1673ffffffffffffffffffffffffffffffffffffffff168152602001600382015481526020016004820160009054906101000a900473ffffffffffffffffffffffffffffffffffffffff1673ffffffffffffffffffffffffffffffffffffffff1673ffffffffffffffffffffffffffffffffffffffff1681525050915081600001511515611c0657600080fd5b6000826080015173ffffffffffffffffffffffffffffffffffffffff161480611c5e57503373ffffffffffffffffffffffffffffffffffffffff16826080015173ffffffffffffffffffffffffffffffffffffffff16145b1515611c6957600080fd5b816060015134141515611c7b57600080fd5b611c8483611aad565b73ffffffffffffffffffffffffffffffffffffffff16826040015173ffffffffffffffffffffffffffffffffffffffff16141515611cc157600080fd5b81604001519050611cd381338561211e565b60a0604051908101604052806000151581526020018481526020013373ffffffffffffffffffffffffffffffffffffffff16815260200160008152602001600073ffffffffffffffffffffffffffffffffffffffff168152506004600085815260200190815260200160002060008201518160000160006101000a81548160ff0219169083151502179055506020820151816001015560408201518160020160006101000a81548173ffffffffffffffffffffffffffffffffffffffff021916908373ffffffffffffffffffffffffffffffffffffffff1602179055506060820151816003015560808201518160040160006101000a81548173ffffffffffffffffffffffffffffffffffffffff021916908373ffffffffffffffffffffffffffffffffffffffff160217905550905050611e5634600560008473ffffffffffffffffffffffffffffffffffffffff1673ffffffffffffffffffffffffffffffffffffffff1681526020019081526020016000205461210090919063ffffffff16565b507fcaacc56f18ca259dc5175dae29eb0ca81407703a4819958c6885acbb7d4f3af3833383604051808481526020018373ffffffffffffffffffffffffffffffffffffffff1673ffffffffffffffffffffffffffffffffffffffff1681526020018273ffffffffffffffffffffffffffffffffffffffff1673ffffffffffffffffffffffffffffffffffffffff168152602001935050505060405180910390a1505050565b60056020528060005260406000206000915090505481565b600060a0604051908101604052806001151581526020018481526020013373ffffffffffffffffffffffffffffffffffffffff168152602001838152602001600073ffffffffffffffffffffffffffffffffffffffff168152506004600085815260200190815260200160002060008201518160000160006101000a81548160ff0219169083151502179055506020820151816001015560408201518160020160006101000a81548173ffffffffffffffffffffffffffffffffffffffff021916908373ffffffffffffffffffffffffffffffffffffffff1602179055506060820151816003015560808201518160040160006101000a81548173ffffffffffffffffffffffffffffffffffffffff021916908373ffffffffffffffffffffffffffffffffffffffff16021790555090505060065483111561205757826006819055505b61206083611aad565b90507f4db9f9d46965c3a6e3bf71f644c011950471378d9292cb675751a0a6f8e4a4ec8383836001604051808581526020018481526020018373ffffffffffffffffffffffffffffffffffffffff1673ffffffffffffffffffffffffffffffffffffffff1681526020018215151515815260200194505050505060405180910390a1505050565b60008282111515156120f557fe5b818303905092915050565b600080828401905083811015151561211457fe5b8091505092915050565b61212782611819565b612130836115ac565b61213a8183610b72565b8173ffffffffffffffffffffffffffffffffffffffff168373ffffffffffffffffffffffffffffffffffffffff167fddf252ad1be2c89b69c2b068fc378daa952ba7f163c4a11628f55a4df523b3ef836040518082815260200191505060405180910390a3505050565b828054600181600116156101000203166002900490600052602060002090601f016020900481019282601f106121e557805160ff1916838001178555612213565b82800160010185558215612213579182015b828111156122125782518255916020019190600101906121f7565b5b5090506122209190612282565b5090565b60a06040519081016040528060001515815260200160008152602001600073ffffffffffffffffffffffffffffffffffffffff16815260200160008152602001600073ffffffffffffffffffffffffffffffffffffffff1681525090565b6122a491905b808211156122a0576000816000905550600101612288565b5090565b905600a165627a7a723058200a67d1c9e9e16c3774628531fd538d1436b41670721d77f7b655636c2c61d5cb0029",
  "source": "// BAD BAD BAD PRACTICE. FOR PROJECT ON TESTNET\r\npragma solidity ^0.4.4;\r\n\r\nimport \"./Safemath.sol\";\r\nimport \"./Erc721.sol\";\r\n\r\ncontract Lightweight is ERC721{\r\n    using SafeMath for uint256;\r\n\r\n    struct Item {\r\n        string name;\r\n        string hashCode;\r\n    }\r\n\r\n    struct Offer {\r\n        bool isForSale;\r\n        uint itemId;\r\n        address seller;\r\n        uint value;\r\n        address onlySellTo;\r\n    }\r\n\r\n    Item[] public items;\r\n\r\n    mapping (uint => address)       public itemToOwner;\r\n    mapping (address => uint)       public ownerItemCount;\r\n\r\n    mapping (uint => address) private itemApprovals;\r\n    mapping (uint => Offer) public itemsOfferedForSale;\r\n    mapping (address => uint) public pendingWithdrawals;\r\n\r\n    uint public highestItemId = 0;\r\n\r\n    event NewItem(\r\n        uint itemId,\r\n        string name,\r\n        string hashCode,\r\n        address owner\r\n    );\r\n\r\n    event OfferPosted(uint itemId, uint salePriceInWei, address owner, bool anyone);\r\n    event OfferTakenDown(uint itemId, address owner);\r\n    event ItemBought(uint itemId, address buyer, address seller);\r\n\r\n    //Get Methods\r\n    function getOwner(uint _id) public view returns (address) {\r\n        return itemToOwner[_id];\r\n    }\r\n\r\n    function getName(uint _id) public view returns (string) {\r\n        return items[_id].name;\r\n    }\r\n\r\n    function getHashCode(uint _id) public view returns (string) {\r\n        return items[_id].hashCode;\r\n    }\r\n\r\n    function getCount(address _owner) public view returns (uint) {\r\n        return ownerItemCount[_owner];\r\n    }\r\n\r\n    function getItemsByOwner(address _owner) \r\n        public \r\n        view \r\n        returns(uint[])\r\n    {\r\n        uint[] memory result = new uint[](ownerItemCount[_owner]);\r\n        uint counter = 0;\r\n        for (uint i=0; i<items.length;i++) {\r\n            if (itemToOwner[i] == _owner) {\r\n                result[counter] = i;\r\n                counter++;\r\n            }\r\n        }\r\n        return result;\r\n    }\r\n\r\n    //Setters\r\n\r\n    function createItem(string _name, string _hashCode, address _owner) public {\r\n        uint id = items.push(Item(_name, _hashCode))-1;\r\n        emit NewItem(id, _name,_hashCode,msg.sender);\r\n        itemToOwner[id] = _owner;\r\n        ownerItemCount[_owner]++;\r\n    }\r\n\r\n    function addCount(address _target) public {\r\n        ownerItemCount[_target] = ownerItemCount[_target].add(1);\r\n    }\r\n\r\n    function subCount(address _target) public {\r\n        ownerItemCount[_target] = ownerItemCount[_target].sub(1);\r\n    }\r\n\r\n    function changeOwnerTo (uint _id, address _newOwner) public {\r\n        itemToOwner[_id] = _newOwner;\r\n    }\r\n\r\n    //Market\r\n\r\n    function offerItem(uint _itemId, uint _salePriceInWei) public { \r\n        itemsOfferedForSale[_itemId] = Offer(true, _itemId, msg.sender, _salePriceInWei, 0x0);\r\n        if (_itemId > highestItemId) highestItemId = _itemId;\r\n        address owner = getOwner(_itemId);\r\n        emit OfferPosted(_itemId, _salePriceInWei, owner, true);\r\n    }\r\n\r\n    function takeDown(uint _itemId) public {\r\n        Offer offer = itemsOfferedForSale[_itemId];\r\n        require(offer.isForSale);\r\n        itemsOfferedForSale[_itemId] = Offer(false, _itemId, msg.sender, 0, 0x0);\r\n        emit OfferTakenDown(_itemId, msg.sender);\r\n    }\r\n\r\n    function offerItemToAddress(uint _itemId, uint _salePriceInWei, address _to) public {\r\n        itemsOfferedForSale[_itemId] = Offer(true, _itemId, msg.sender, _salePriceInWei, _to);\r\n        if (_itemId > highestItemId) highestItemId = _itemId;\r\n        address owner = getOwner(_itemId);\r\n        emit OfferPosted(_itemId, _salePriceInWei, owner, false);\r\n    }\r\n\r\n    function itemToPrice(uint _itemId) public view returns (uint) {\r\n        return itemsOfferedForSale[_itemId].value;\r\n    }\r\n\r\n    function buyItem(uint _itemId) public payable {\r\n        Offer memory offer = itemsOfferedForSale[_itemId];\r\n        require(offer.isForSale);\r\n        require(offer.onlySellTo == 0x0 || offer.onlySellTo == msg.sender);\r\n        require(msg.value == offer.value);\r\n        require(offer.seller == getOwner(_itemId));\r\n\r\n        address seller = offer.seller;\r\n\r\n        _transfer(seller, msg.sender, _itemId);\r\n        itemsOfferedForSale[_itemId] = Offer(false, _itemId, msg.sender, 0, 0x0);\r\n        pendingWithdrawals[seller].add(msg.value);\r\n        emit ItemBought(_itemId, msg.sender, seller);\r\n    }\r\n\r\n    function withdraw() public {\r\n        uint amount = pendingWithdrawals[msg.sender];\r\n        pendingWithdrawals[msg.sender] = 0;\r\n        msg.sender.transfer(amount);\r\n    }\r\n\r\n    //ERC721 override\r\n\r\n    function balanceOf(address _owner) public view returns (uint256 _balance) {\r\n        return getCount(_owner);\r\n    }\r\n\r\n    function ownerOf(uint256 _tokenId) public view returns (address _owner) {\r\n        return getOwner(_tokenId);\r\n    }\r\n\r\n    function transfer(address _to, uint256 _tokenId) public {\r\n        _transfer(msg.sender, _to, _tokenId);\r\n    }\r\n\r\n    function approve(address _to, uint256 _tokenId) public {\r\n        itemApprovals[_tokenId] = _to;\r\n        emit Approval(msg.sender, _to, _tokenId);\r\n    }\r\n\r\n    function _transfer(address _from, address _to, uint256 _tokenId) private {\r\n        addCount(_to);\r\n        subCount(_from);\r\n        changeOwnerTo(_tokenId, _to);\r\n        emit Transfer(_from, _to, _tokenId);\r\n    }\r\n\r\n    function takeOwnership(uint256 _tokenId) public {\r\n        require(itemApprovals[_tokenId] == msg.sender);\r\n        address owner = ownerOf(_tokenId);\r\n        _transfer(owner, msg.sender, _tokenId);\r\n    }\r\n}",
  "sourcePath": "C:\\xampp\\htdocs\\shakewell\\contracts\\Lightweight.sol",
  "compiler": {
    "name": "solc",
    "version": "0.4.24+commit.e67f0147.Emscripten.clang"
  },
  "schemaVersion": "2.0.0",
  "updatedAt": "2018-12-03T17:01:51.013Z"
}